{
  "_format": "hh-sol-artifact-1",
  "contractName": "Avatar1155",
  "sourceName": "contracts/Avatar1155.sol",
  "abi": [
    {
      "inputs": [
        {
          "internalType": "address",
          "name": "_ownAddr",
          "type": "address"
        },
        {
          "internalType": "string",
          "name": "_baseUri",
          "type": "string"
        },
        {
          "internalType": "uint96",
          "name": "_royalties",
          "type": "uint96"
        }
      ],
      "stateMutability": "nonpayable",
      "type": "constructor"
    },
    {
      "anonymous": false,
      "inputs": [
        {
          "indexed": true,
          "internalType": "address",
          "name": "account",
          "type": "address"
        },
        {
          "indexed": true,
          "internalType": "address",
          "name": "operator",
          "type": "address"
        },
        {
          "indexed": false,
          "internalType": "bool",
          "name": "approved",
          "type": "bool"
        }
      ],
      "name": "ApprovalForAll",
      "type": "event"
    },
    {
      "anonymous": false,
      "inputs": [
        {
          "indexed": true,
          "internalType": "bytes32",
          "name": "role",
          "type": "bytes32"
        },
        {
          "indexed": true,
          "internalType": "bytes32",
          "name": "previousAdminRole",
          "type": "bytes32"
        },
        {
          "indexed": true,
          "internalType": "bytes32",
          "name": "newAdminRole",
          "type": "bytes32"
        }
      ],
      "name": "RoleAdminChanged",
      "type": "event"
    },
    {
      "anonymous": false,
      "inputs": [
        {
          "indexed": true,
          "internalType": "bytes32",
          "name": "role",
          "type": "bytes32"
        },
        {
          "indexed": true,
          "internalType": "address",
          "name": "account",
          "type": "address"
        },
        {
          "indexed": true,
          "internalType": "address",
          "name": "sender",
          "type": "address"
        }
      ],
      "name": "RoleGranted",
      "type": "event"
    },
    {
      "anonymous": false,
      "inputs": [
        {
          "indexed": true,
          "internalType": "bytes32",
          "name": "role",
          "type": "bytes32"
        },
        {
          "indexed": true,
          "internalType": "address",
          "name": "account",
          "type": "address"
        },
        {
          "indexed": true,
          "internalType": "address",
          "name": "sender",
          "type": "address"
        }
      ],
      "name": "RoleRevoked",
      "type": "event"
    },
    {
      "anonymous": false,
      "inputs": [
        {
          "indexed": true,
          "internalType": "address",
          "name": "operator",
          "type": "address"
        },
        {
          "indexed": true,
          "internalType": "address",
          "name": "from",
          "type": "address"
        },
        {
          "indexed": true,
          "internalType": "address",
          "name": "to",
          "type": "address"
        },
        {
          "indexed": false,
          "internalType": "uint256[]",
          "name": "ids",
          "type": "uint256[]"
        },
        {
          "indexed": false,
          "internalType": "uint256[]",
          "name": "values",
          "type": "uint256[]"
        }
      ],
      "name": "TransferBatch",
      "type": "event"
    },
    {
      "anonymous": false,
      "inputs": [
        {
          "indexed": true,
          "internalType": "address",
          "name": "operator",
          "type": "address"
        },
        {
          "indexed": true,
          "internalType": "address",
          "name": "from",
          "type": "address"
        },
        {
          "indexed": true,
          "internalType": "address",
          "name": "to",
          "type": "address"
        },
        {
          "indexed": false,
          "internalType": "uint256",
          "name": "id",
          "type": "uint256"
        },
        {
          "indexed": false,
          "internalType": "uint256",
          "name": "value",
          "type": "uint256"
        }
      ],
      "name": "TransferSingle",
      "type": "event"
    },
    {
      "anonymous": false,
      "inputs": [
        {
          "indexed": false,
          "internalType": "string",
          "name": "value",
          "type": "string"
        },
        {
          "indexed": true,
          "internalType": "uint256",
          "name": "id",
          "type": "uint256"
        }
      ],
      "name": "URI",
      "type": "event"
    },
    {
      "inputs": [],
      "name": "DEFAULT_ADMIN_ROLE",
      "outputs": [
        {
          "internalType": "bytes32",
          "name": "",
          "type": "bytes32"
        }
      ],
      "stateMutability": "view",
      "type": "function"
    },
    {
      "inputs": [],
      "name": "MINTER_ROLE",
      "outputs": [
        {
          "internalType": "bytes32",
          "name": "",
          "type": "bytes32"
        }
      ],
      "stateMutability": "view",
      "type": "function"
    },
    {
      "inputs": [
        {
          "internalType": "address",
          "name": "account",
          "type": "address"
        },
        {
          "internalType": "uint256",
          "name": "id",
          "type": "uint256"
        }
      ],
      "name": "balanceOf",
      "outputs": [
        {
          "internalType": "uint256",
          "name": "",
          "type": "uint256"
        }
      ],
      "stateMutability": "view",
      "type": "function"
    },
    {
      "inputs": [
        {
          "internalType": "address[]",
          "name": "accounts",
          "type": "address[]"
        },
        {
          "internalType": "uint256[]",
          "name": "ids",
          "type": "uint256[]"
        }
      ],
      "name": "balanceOfBatch",
      "outputs": [
        {
          "internalType": "uint256[]",
          "name": "",
          "type": "uint256[]"
        }
      ],
      "stateMutability": "view",
      "type": "function"
    },
    {
      "inputs": [],
      "name": "defaultRoyalties",
      "outputs": [
        {
          "internalType": "uint96",
          "name": "",
          "type": "uint96"
        }
      ],
      "stateMutability": "view",
      "type": "function"
    },
    {
      "inputs": [
        {
          "internalType": "bytes32",
          "name": "role",
          "type": "bytes32"
        }
      ],
      "name": "getRoleAdmin",
      "outputs": [
        {
          "internalType": "bytes32",
          "name": "",
          "type": "bytes32"
        }
      ],
      "stateMutability": "view",
      "type": "function"
    },
    {
      "inputs": [
        {
          "internalType": "bytes32",
          "name": "role",
          "type": "bytes32"
        },
        {
          "internalType": "address",
          "name": "account",
          "type": "address"
        }
      ],
      "name": "grantRole",
      "outputs": [],
      "stateMutability": "nonpayable",
      "type": "function"
    },
    {
      "inputs": [
        {
          "internalType": "bytes32",
          "name": "role",
          "type": "bytes32"
        },
        {
          "internalType": "address",
          "name": "account",
          "type": "address"
        }
      ],
      "name": "hasRole",
      "outputs": [
        {
          "internalType": "bool",
          "name": "",
          "type": "bool"
        }
      ],
      "stateMutability": "view",
      "type": "function"
    },
    {
      "inputs": [
        {
          "internalType": "address",
          "name": "account",
          "type": "address"
        },
        {
          "internalType": "address",
          "name": "operator",
          "type": "address"
        }
      ],
      "name": "isApprovedForAll",
      "outputs": [
        {
          "internalType": "bool",
          "name": "",
          "type": "bool"
        }
      ],
      "stateMutability": "view",
      "type": "function"
    },
    {
      "inputs": [
        {
          "internalType": "uint256",
          "name": "id",
          "type": "uint256"
        },
        {
          "internalType": "uint256",
          "name": "amount",
          "type": "uint256"
        }
      ],
      "name": "mint",
      "outputs": [],
      "stateMutability": "nonpayable",
      "type": "function"
    },
    {
      "inputs": [
        {
          "internalType": "uint256[]",
          "name": "ids",
          "type": "uint256[]"
        },
        {
          "internalType": "uint256[]",
          "name": "amounts",
          "type": "uint256[]"
        }
      ],
      "name": "mintBatch",
      "outputs": [],
      "stateMutability": "nonpayable",
      "type": "function"
    },
    {
      "inputs": [],
      "name": "mintPrice",
      "outputs": [
        {
          "internalType": "uint256",
          "name": "",
          "type": "uint256"
        }
      ],
      "stateMutability": "view",
      "type": "function"
    },
    {
      "inputs": [],
      "name": "ownAddr",
      "outputs": [
        {
          "internalType": "address",
          "name": "",
          "type": "address"
        }
      ],
      "stateMutability": "view",
      "type": "function"
    },
    {
      "inputs": [
        {
          "internalType": "bytes32",
          "name": "role",
          "type": "bytes32"
        },
        {
          "internalType": "address",
          "name": "account",
          "type": "address"
        }
      ],
      "name": "renounceRole",
      "outputs": [],
      "stateMutability": "nonpayable",
      "type": "function"
    },
    {
      "inputs": [
        {
          "internalType": "bytes32",
          "name": "role",
          "type": "bytes32"
        },
        {
          "internalType": "address",
          "name": "account",
          "type": "address"
        }
      ],
      "name": "revokeRole",
      "outputs": [],
      "stateMutability": "nonpayable",
      "type": "function"
    },
    {
      "inputs": [
        {
          "internalType": "uint256",
          "name": "_tokenId",
          "type": "uint256"
        },
        {
          "internalType": "uint256",
          "name": "_salePrice",
          "type": "uint256"
        }
      ],
      "name": "royaltyInfo",
      "outputs": [
        {
          "internalType": "address",
          "name": "",
          "type": "address"
        },
        {
          "internalType": "uint256",
          "name": "",
          "type": "uint256"
        }
      ],
      "stateMutability": "view",
      "type": "function"
    },
    {
      "inputs": [
        {
          "internalType": "address",
          "name": "from",
          "type": "address"
        },
        {
          "internalType": "address",
          "name": "to",
          "type": "address"
        },
        {
          "internalType": "uint256[]",
          "name": "ids",
          "type": "uint256[]"
        },
        {
          "internalType": "uint256[]",
          "name": "amounts",
          "type": "uint256[]"
        },
        {
          "internalType": "bytes",
          "name": "data",
          "type": "bytes"
        }
      ],
      "name": "safeBatchTransferFrom",
      "outputs": [],
      "stateMutability": "nonpayable",
      "type": "function"
    },
    {
      "inputs": [
        {
          "internalType": "address",
          "name": "from",
          "type": "address"
        },
        {
          "internalType": "address",
          "name": "to",
          "type": "address"
        },
        {
          "internalType": "uint256",
          "name": "id",
          "type": "uint256"
        },
        {
          "internalType": "uint256",
          "name": "amount",
          "type": "uint256"
        },
        {
          "internalType": "bytes",
          "name": "data",
          "type": "bytes"
        }
      ],
      "name": "safeTransferFrom",
      "outputs": [],
      "stateMutability": "nonpayable",
      "type": "function"
    },
    {
      "inputs": [
        {
          "internalType": "address",
          "name": "operator",
          "type": "address"
        },
        {
          "internalType": "bool",
          "name": "approved",
          "type": "bool"
        }
      ],
      "name": "setApprovalForAll",
      "outputs": [],
      "stateMutability": "nonpayable",
      "type": "function"
    },
    {
      "inputs": [
        {
          "internalType": "bytes4",
          "name": "interfaceId",
          "type": "bytes4"
        }
      ],
      "name": "supportsInterface",
      "outputs": [
        {
          "internalType": "bool",
          "name": "",
          "type": "bool"
        }
      ],
      "stateMutability": "view",
      "type": "function"
    },
    {
      "inputs": [
        {
          "internalType": "uint256",
          "name": "",
          "type": "uint256"
        }
      ],
      "name": "uri",
      "outputs": [
        {
          "internalType": "string",
          "name": "",
          "type": "string"
        }
      ],
      "stateMutability": "view",
      "type": "function"
    }
  ],
  "bytecode": "0x60806040523480156200001157600080fd5b50604051620046e5380380620046e58339818101604052810190620000379190620003c8565b816200004981620000f760201b60201c565b506200007c7f9f2df0fed2c77648de5860a4cc508cd0818c85b8b8a1ab4ceeef8d981c8956a6846200011360201b60201c565b82600860006101000a81548173ffffffffffffffffffffffffffffffffffffffff021916908373ffffffffffffffffffffffffffffffffffffffff16021790555080600a60006101000a8154816bffffffffffffffffffffffff02191690836bffffffffffffffffffffffff16021790555050505062000627565b80600290805190602001906200010f92919062000278565b5050565b6200012582826200020560201b60201c565b620002015760016003600084815260200190815260200160002060000160008373ffffffffffffffffffffffffffffffffffffffff1673ffffffffffffffffffffffffffffffffffffffff16815260200190815260200160002060006101000a81548160ff021916908315150217905550620001a66200027060201b60201c565b73ffffffffffffffffffffffffffffffffffffffff168173ffffffffffffffffffffffffffffffffffffffff16837f2f8788117e7eff1d82e926ec794901d17c78024a50270940304540a733656f0d60405160405180910390a45b5050565b60006003600084815260200190815260200160002060000160008373ffffffffffffffffffffffffffffffffffffffff1673ffffffffffffffffffffffffffffffffffffffff16815260200190815260200160002060009054906101000a900460ff16905092915050565b600033905090565b828054620002869062000518565b90600052602060002090601f016020900481019282620002aa5760008555620002f6565b82601f10620002c557805160ff1916838001178555620002f6565b82800160010185558215620002f6579182015b82811115620002f5578251825591602001919060010190620002d8565b5b50905062000305919062000309565b5090565b5b80821115620003245760008160009055506001016200030a565b5090565b60006200033f620003398462000460565b62000437565b9050828152602081018484840111156200035857600080fd5b62000365848285620004e2565b509392505050565b6000815190506200037e81620005f3565b92915050565b600082601f8301126200039657600080fd5b8151620003a884826020860162000328565b91505092915050565b600081519050620003c2816200060d565b92915050565b600080600060608486031215620003de57600080fd5b6000620003ee868287016200036d565b935050602084015167ffffffffffffffff8111156200040c57600080fd5b6200041a8682870162000384565b92505060406200042d86828701620003b1565b9150509250925092565b60006200044362000456565b90506200045182826200054e565b919050565b6000604051905090565b600067ffffffffffffffff8211156200047e576200047d620005b3565b5b6200048982620005e2565b9050602081019050919050565b6000620004a382620004aa565b9050919050565b600073ffffffffffffffffffffffffffffffffffffffff82169050919050565b60006bffffffffffffffffffffffff82169050919050565b60005b8381101562000502578082015181840152602081019050620004e5565b8381111562000512576000848401525b50505050565b600060028204905060018216806200053157607f821691505b6020821081141562000548576200054762000584565b5b50919050565b6200055982620005e2565b810181811067ffffffffffffffff821117156200057b576200057a620005b3565b5b80604052505050565b7f4e487b7100000000000000000000000000000000000000000000000000000000600052602260045260246000fd5b7f4e487b7100000000000000000000000000000000000000000000000000000000600052604160045260246000fd5b6000601f19601f8301169050919050565b620005fe8162000496565b81146200060a57600080fd5b50565b6200061881620004ca565b81146200062457600080fd5b50565b6140ae80620006376000396000f3fe608060405234801561001057600080fd5b50600436106101365760003560e01c80634e1273f4116100b8578063d351cfdc1161007c578063d351cfdc14610372578063d53913931461038e578063d547741f146103ac578063e985e9c5146103c8578063f242432a146103f8578063f951735a1461041457610136565b80634e1273f4146102ba5780636817c76c146102ea57806391d1485414610308578063a217fddf14610338578063a22cb4651461035657610136565b80632a55205a116100ff5780632a55205a146102175780632bd10d02146102485780632eb2c2d6146102665780632f2ff15d1461028257806336568abe1461029e57610136565b8062fdd58e1461013b57806301ffc9a71461016b5780630e89341c1461019b5780631b2ef1ca146101cb578063248a9ca3146101e7575b600080fd5b61015560048036038101906101509190612bed565b610432565b60405161016291906135b4565b60405180910390f35b61018560048036038101906101809190612d66565b6104fb565b604051610192919061337c565b60405180910390f35b6101b560048036038101906101b09190612db8565b61050d565b6040516101c291906133b2565b60405180910390f35b6101e560048036038101906101e09190612de1565b6105a1565b005b61020160048036038101906101fc9190612d01565b610632565b60405161020e9190613397565b60405180910390f35b610231600480360381019061022c9190612de1565b610652565b60405161023f9291906132fa565b60405180910390f35b61025061083d565b60405161025d919061321d565b60405180910390f35b610280600480360381019061027b9190612a63565b610863565b005b61029c60048036038101906102979190612d2a565b610904565b005b6102b860048036038101906102b39190612d2a565b610925565b005b6102d460048036038101906102cf9190612c29565b6109a8565b6040516102e19190613323565b60405180910390f35b6102f2610b59565b6040516102ff91906135b4565b60405180910390f35b610322600480360381019061031d9190612d2a565b610b5f565b60405161032f919061337c565b60405180910390f35b610340610bca565b60405161034d9190613397565b60405180910390f35b610370600480360381019061036b9190612bb1565b610bd1565b005b61038c60048036038101906103879190612c95565b610be7565b005b610396610cad565b6040516103a39190613397565b60405180910390f35b6103c660048036038101906103c19190612d2a565b610cd1565b005b6103e260048036038101906103dd9190612a27565b610cf2565b6040516103ef919061337c565b60405180910390f35b610412600480360381019061040d9190612b22565b610d86565b005b61041c610e27565b60405161042991906135f8565b60405180910390f35b60008073ffffffffffffffffffffffffffffffffffffffff168373ffffffffffffffffffffffffffffffffffffffff1614156104a3576040517f08c379a000000000000000000000000000000000000000000000000000000000815260040161049a90613434565b60405180910390fd5b60008083815260200190815260200160002060008473ffffffffffffffffffffffffffffffffffffffff1673ffffffffffffffffffffffffffffffffffffffff16815260200190815260200160002054905092915050565b600061050682610e45565b9050919050565b60606002805461051c90613920565b80601f016020809104026020016040519081016040528092919081815260200182805461054890613920565b80156105955780601f1061056a57610100808354040283529160200191610595565b820191906000526020600020905b81548152906001019060200180831161057857829003601f168201915b50505050509050919050565b7f9f2df0fed2c77648de5860a4cc508cd0818c85b8b8a1ab4ceeef8d981c8956a66105cb81610ebf565b6105e633848460405180602001604052806000815250610ed3565b61062d83600860009054906101000a900473ffffffffffffffffffffffffffffffffffffffff16600a60009054906101000a90046bffffffffffffffffffffffff16611084565b505050565b600060036000838152602001908152602001600020600101549050919050565b6000806000600560008681526020019081526020016000206040518060400160405290816000820160009054906101000a900473ffffffffffffffffffffffffffffffffffffffff1673ffffffffffffffffffffffffffffffffffffffff1673ffffffffffffffffffffffffffffffffffffffff1681526020016000820160149054906101000a90046bffffffffffffffffffffffff166bffffffffffffffffffffffff166bffffffffffffffffffffffff16815250509050600073ffffffffffffffffffffffffffffffffffffffff16816000015173ffffffffffffffffffffffffffffffffffffffff1614156107e85760046040518060400160405290816000820160009054906101000a900473ffffffffffffffffffffffffffffffffffffffff1673ffffffffffffffffffffffffffffffffffffffff1673ffffffffffffffffffffffffffffffffffffffff1681526020016000820160149054906101000a90046bffffffffffffffffffffffff166bffffffffffffffffffffffff166bffffffffffffffffffffffff168152505090505b60006107f261122c565b6bffffffffffffffffffffffff1682602001516bffffffffffffffffffffffff168661081e91906137c4565b6108289190613793565b90508160000151819350935050509250929050565b600860009054906101000a900473ffffffffffffffffffffffffffffffffffffffff1681565b61086b611236565b73ffffffffffffffffffffffffffffffffffffffff168573ffffffffffffffffffffffffffffffffffffffff1614806108b157506108b0856108ab611236565b610cf2565b5b6108f0576040517f08c379a00000000000000000000000000000000000000000000000000000000081526004016108e790613494565b60405180910390fd5b6108fd858585858561123e565b5050505050565b61090d82610632565b61091681610ebf565b61092083836115ac565b505050565b61092d611236565b73ffffffffffffffffffffffffffffffffffffffff168173ffffffffffffffffffffffffffffffffffffffff161461099a576040517f08c379a000000000000000000000000000000000000000000000000000000000815260040161099190613594565b60405180910390fd5b6109a4828261168d565b5050565b606081518351146109ee576040517f08c379a00000000000000000000000000000000000000000000000000000000081526004016109e590613534565b60405180910390fd5b6000835167ffffffffffffffff811115610a31577f4e487b7100000000000000000000000000000000000000000000000000000000600052604160045260246000fd5b604051908082528060200260200182016040528015610a5f5781602001602082028036833780820191505090505b50905060005b8451811015610b4e57610af8858281518110610aaa577f4e487b7100000000000000000000000000000000000000000000000000000000600052603260045260246000fd5b6020026020010151858381518110610aeb577f4e487b7100000000000000000000000000000000000000000000000000000000600052603260045260246000fd5b6020026020010151610432565b828281518110610b31577f4e487b7100000000000000000000000000000000000000000000000000000000600052603260045260246000fd5b60200260200101818152505080610b4790613983565b9050610a65565b508091505092915050565b60075481565b60006003600084815260200190815260200160002060000160008373ffffffffffffffffffffffffffffffffffffffff1673ffffffffffffffffffffffffffffffffffffffff16815260200190815260200160002060009054906101000a900460ff16905092915050565b6000801b81565b610be3610bdc611236565b838361176f565b5050565b610c02338383604051806020016040528060008152506118dc565b60005b8251811015610ca857610c95838281518110610c4a577f4e487b7100000000000000000000000000000000000000000000000000000000600052603260045260246000fd5b6020026020010151600860009054906101000a900473ffffffffffffffffffffffffffffffffffffffff16600a60009054906101000a90046bffffffffffffffffffffffff16611084565b8080610ca090613983565b915050610c05565b505050565b7f9f2df0fed2c77648de5860a4cc508cd0818c85b8b8a1ab4ceeef8d981c8956a681565b610cda82610632565b610ce381610ebf565b610ced838361168d565b505050565b6000600160008473ffffffffffffffffffffffffffffffffffffffff1673ffffffffffffffffffffffffffffffffffffffff16815260200190815260200160002060008373ffffffffffffffffffffffffffffffffffffffff1673ffffffffffffffffffffffffffffffffffffffff16815260200190815260200160002060009054906101000a900460ff16905092915050565b610d8e611236565b73ffffffffffffffffffffffffffffffffffffffff168573ffffffffffffffffffffffffffffffffffffffff161480610dd45750610dd385610dce611236565b610cf2565b5b610e13576040517f08c379a0000000000000000000000000000000000000000000000000000000008152600401610e0a90613454565b60405180910390fd5b610e208585858585611b55565b5050505050565b600a60009054906101000a90046bffffffffffffffffffffffff1681565b60007f2a55205a000000000000000000000000000000000000000000000000000000007bffffffffffffffffffffffffffffffffffffffffffffffffffffffff1916827bffffffffffffffffffffffffffffffffffffffffffffffffffffffff19161480610eb85750610eb782611df1565b5b9050919050565b610ed081610ecb611236565b611e6b565b50565b600073ffffffffffffffffffffffffffffffffffffffff168473ffffffffffffffffffffffffffffffffffffffff161415610f43576040517f08c379a0000000000000000000000000000000000000000000000000000000008152600401610f3a90613574565b60405180910390fd5b6000610f4d611236565b90506000610f5a85611f08565b90506000610f6785611f08565b9050610f7883600089858589611fce565b8460008088815260200190815260200160002060008973ffffffffffffffffffffffffffffffffffffffff1673ffffffffffffffffffffffffffffffffffffffff1681526020019081526020016000206000828254610fd7919061373d565b925050819055508673ffffffffffffffffffffffffffffffffffffffff16600073ffffffffffffffffffffffffffffffffffffffff168473ffffffffffffffffffffffffffffffffffffffff167fc3d58168c5ae7397731d063d5bbf3d657854427343f4c083240f7aacaa2d0f6289896040516110559291906135cf565b60405180910390a461106c83600089858589611fd6565b61107b83600089898989611fde565b50505050505050565b61108c61122c565b6bffffffffffffffffffffffff16816bffffffffffffffffffffffff1611156110ea576040517f08c379a00000000000000000000000000000000000000000000000000000000081526004016110e1906134f4565b60405180910390fd5b600073ffffffffffffffffffffffffffffffffffffffff168273ffffffffffffffffffffffffffffffffffffffff16141561115a576040517f08c379a0000000000000000000000000000000000000000000000000000000008152600401611151906134d4565b60405180910390fd5b60405180604001604052808373ffffffffffffffffffffffffffffffffffffffff168152602001826bffffffffffffffffffffffff168152506005600085815260200190815260200160002060008201518160000160006101000a81548173ffffffffffffffffffffffffffffffffffffffff021916908373ffffffffffffffffffffffffffffffffffffffff16021790555060208201518160000160146101000a8154816bffffffffffffffffffffffff02191690836bffffffffffffffffffffffff160217905550905050505050565b6000612710905090565b600033905090565b8151835114611282576040517f08c379a000000000000000000000000000000000000000000000000000000000815260040161127990613554565b60405180910390fd5b600073ffffffffffffffffffffffffffffffffffffffff168473ffffffffffffffffffffffffffffffffffffffff1614156112f2576040517f08c379a00000000000000000000000000000000000000000000000000000000081526004016112e990613474565b60405180910390fd5b60006112fc611236565b905061130c818787878787611fce565b60005b8451811015611509576000858281518110611353577f4e487b7100000000000000000000000000000000000000000000000000000000600052603260045260246000fd5b602002602001015190506000858381518110611398577f4e487b7100000000000000000000000000000000000000000000000000000000600052603260045260246000fd5b60200260200101519050600080600084815260200190815260200160002060008b73ffffffffffffffffffffffffffffffffffffffff1673ffffffffffffffffffffffffffffffffffffffff16815260200190815260200160002054905081811015611439576040517f08c379a0000000000000000000000000000000000000000000000000000000008152600401611430906134b4565b60405180910390fd5b81810360008085815260200190815260200160002060008c73ffffffffffffffffffffffffffffffffffffffff1673ffffffffffffffffffffffffffffffffffffffff168152602001908152602001600020819055508160008085815260200190815260200160002060008b73ffffffffffffffffffffffffffffffffffffffff1673ffffffffffffffffffffffffffffffffffffffff16815260200190815260200160002060008282546114ee919061373d565b925050819055505050508061150290613983565b905061130f565b508473ffffffffffffffffffffffffffffffffffffffff168673ffffffffffffffffffffffffffffffffffffffff168273ffffffffffffffffffffffffffffffffffffffff167f4a39dc06d4c0dbc64b70af90fd698a233a518aa5d07e595d983b8c0526c8f7fb8787604051611580929190613345565b60405180910390a4611596818787878787611fd6565b6115a48187878787876121c5565b505050505050565b6115b68282610b5f565b6116895760016003600084815260200190815260200160002060000160008373ffffffffffffffffffffffffffffffffffffffff1673ffffffffffffffffffffffffffffffffffffffff16815260200190815260200160002060006101000a81548160ff02191690831515021790555061162e611236565b73ffffffffffffffffffffffffffffffffffffffff168173ffffffffffffffffffffffffffffffffffffffff16837f2f8788117e7eff1d82e926ec794901d17c78024a50270940304540a733656f0d60405160405180910390a45b5050565b6116978282610b5f565b1561176b5760006003600084815260200190815260200160002060000160008373ffffffffffffffffffffffffffffffffffffffff1673ffffffffffffffffffffffffffffffffffffffff16815260200190815260200160002060006101000a81548160ff021916908315150217905550611710611236565b73ffffffffffffffffffffffffffffffffffffffff168173ffffffffffffffffffffffffffffffffffffffff16837ff6391f5c32d9c69d2a47ea670b442974b53935d1edc7fd64eb21e047a839171b60405160405180910390a45b5050565b8173ffffffffffffffffffffffffffffffffffffffff168373ffffffffffffffffffffffffffffffffffffffff1614156117de576040517f08c379a00000000000000000000000000000000000000000000000000000000081526004016117d590613514565b60405180910390fd5b80600160008573ffffffffffffffffffffffffffffffffffffffff1673ffffffffffffffffffffffffffffffffffffffff16815260200190815260200160002060008473ffffffffffffffffffffffffffffffffffffffff1673ffffffffffffffffffffffffffffffffffffffff16815260200190815260200160002060006101000a81548160ff0219169083151502179055508173ffffffffffffffffffffffffffffffffffffffff168373ffffffffffffffffffffffffffffffffffffffff167f17307eab39ab6107e8899845ad3d59bd9653f200f220920489ca2b5937696c31836040516118cf919061337c565b60405180910390a3505050565b600073ffffffffffffffffffffffffffffffffffffffff168473ffffffffffffffffffffffffffffffffffffffff16141561194c576040517f08c379a000000000000000000000000000000000000000000000000000000000815260040161194390613574565b60405180910390fd5b8151835114611990576040517f08c379a000000000000000000000000000000000000000000000000000000000815260040161198790613554565b60405180910390fd5b600061199a611236565b90506119ab81600087878787611fce565b60005b8451811015611ab0578381815181106119f0577f4e487b7100000000000000000000000000000000000000000000000000000000600052603260045260246000fd5b6020026020010151600080878481518110611a34577f4e487b7100000000000000000000000000000000000000000000000000000000600052603260045260246000fd5b6020026020010151815260200190815260200160002060008873ffffffffffffffffffffffffffffffffffffffff1673ffffffffffffffffffffffffffffffffffffffff1681526020019081526020016000206000828254611a96919061373d565b925050819055508080611aa890613983565b9150506119ae565b508473ffffffffffffffffffffffffffffffffffffffff16600073ffffffffffffffffffffffffffffffffffffffff168273ffffffffffffffffffffffffffffffffffffffff167f4a39dc06d4c0dbc64b70af90fd698a233a518aa5d07e595d983b8c0526c8f7fb8787604051611b28929190613345565b60405180910390a4611b3f81600087878787611fd6565b611b4e816000878787876121c5565b5050505050565b600073ffffffffffffffffffffffffffffffffffffffff168473ffffffffffffffffffffffffffffffffffffffff161415611bc5576040517f08c379a0000000000000000000000000000000000000000000000000000000008152600401611bbc90613474565b60405180910390fd5b6000611bcf611236565b90506000611bdc85611f08565b90506000611be985611f08565b9050611bf9838989858589611fce565b600080600088815260200190815260200160002060008a73ffffffffffffffffffffffffffffffffffffffff1673ffffffffffffffffffffffffffffffffffffffff16815260200190815260200160002054905085811015611c90576040517f08c379a0000000000000000000000000000000000000000000000000000000008152600401611c87906134b4565b60405180910390fd5b85810360008089815260200190815260200160002060008b73ffffffffffffffffffffffffffffffffffffffff1673ffffffffffffffffffffffffffffffffffffffff168152602001908152602001600020819055508560008089815260200190815260200160002060008a73ffffffffffffffffffffffffffffffffffffffff1673ffffffffffffffffffffffffffffffffffffffff1681526020019081526020016000206000828254611d45919061373d565b925050819055508773ffffffffffffffffffffffffffffffffffffffff168973ffffffffffffffffffffffffffffffffffffffff168573ffffffffffffffffffffffffffffffffffffffff167fc3d58168c5ae7397731d063d5bbf3d657854427343f4c083240f7aacaa2d0f628a8a604051611dc29291906135cf565b60405180910390a4611dd8848a8a86868a611fd6565b611de6848a8a8a8a8a611fde565b505050505050505050565b60007f7965db0b000000000000000000000000000000000000000000000000000000007bffffffffffffffffffffffffffffffffffffffffffffffffffffffff1916827bffffffffffffffffffffffffffffffffffffffffffffffffffffffff19161480611e645750611e63826123ac565b5b9050919050565b611e758282610b5f565b611f0457611e9a8173ffffffffffffffffffffffffffffffffffffffff16601461248e565b611ea88360001c602061248e565b604051602001611eb99291906131e3565b6040516020818303038152906040526040517f08c379a0000000000000000000000000000000000000000000000000000000008152600401611efb91906133b2565b60405180910390fd5b5050565b60606000600167ffffffffffffffff811115611f4d577f4e487b7100000000000000000000000000000000000000000000000000000000600052604160045260246000fd5b604051908082528060200260200182016040528015611f7b5781602001602082028036833780820191505090505b5090508281600081518110611fb9577f4e487b7100000000000000000000000000000000000000000000000000000000600052603260045260246000fd5b60200260200101818152505080915050919050565b505050505050565b505050505050565b611ffd8473ffffffffffffffffffffffffffffffffffffffff16612788565b156121bd578373ffffffffffffffffffffffffffffffffffffffff1663f23a6e6187878686866040518663ffffffff1660e01b81526004016120439594939291906132a0565b602060405180830381600087803b15801561205d57600080fd5b505af192505050801561208e57506040513d601f19601f8201168201806040525081019061208b9190612d8f565b60015b6121345761209a613a88565b806308c379a014156120f757506120af613f6f565b806120ba57506120f9565b806040517f08c379a00000000000000000000000000000000000000000000000000000000081526004016120ee91906133b2565b60405180910390fd5b505b6040517f08c379a000000000000000000000000000000000000000000000000000000000815260040161212b906133d4565b60405180910390fd5b63f23a6e6160e01b7bffffffffffffffffffffffffffffffffffffffffffffffffffffffff1916817bffffffffffffffffffffffffffffffffffffffffffffffffffffffff1916146121bb576040517f08c379a00000000000000000000000000000000000000000000000000000000081526004016121b290613414565b60405180910390fd5b505b505050505050565b6121e48473ffffffffffffffffffffffffffffffffffffffff16612788565b156123a4578373ffffffffffffffffffffffffffffffffffffffff1663bc197c8187878686866040518663ffffffff1660e01b815260040161222a959493929190613238565b602060405180830381600087803b15801561224457600080fd5b505af192505050801561227557506040513d601f19601f820116820180604052508101906122729190612d8f565b60015b61231b57612281613a88565b806308c379a014156122de5750612296613f6f565b806122a157506122e0565b806040517f08c379a00000000000000000000000000000000000000000000000000000000081526004016122d591906133b2565b60405180910390fd5b505b6040517f08c379a0000000000000000000000000000000000000000000000000000000008152600401612312906133d4565b60405180910390fd5b63bc197c8160e01b7bffffffffffffffffffffffffffffffffffffffffffffffffffffffff1916817bffffffffffffffffffffffffffffffffffffffffffffffffffffffff1916146123a2576040517f08c379a000000000000000000000000000000000000000000000000000000000815260040161239990613414565b60405180910390fd5b505b505050505050565b60007fd9b67a26000000000000000000000000000000000000000000000000000000007bffffffffffffffffffffffffffffffffffffffffffffffffffffffff1916827bffffffffffffffffffffffffffffffffffffffffffffffffffffffff1916148061247757507f0e89341c000000000000000000000000000000000000000000000000000000007bffffffffffffffffffffffffffffffffffffffffffffffffffffffff1916827bffffffffffffffffffffffffffffffffffffffffffffffffffffffff1916145b806124875750612486826127ab565b5b9050919050565b6060600060028360026124a191906137c4565b6124ab919061373d565b67ffffffffffffffff8111156124ea577f4e487b7100000000000000000000000000000000000000000000000000000000600052604160045260246000fd5b6040519080825280601f01601f19166020018201604052801561251c5781602001600182028036833780820191505090505b5090507f30000000000000000000000000000000000000000000000000000000000000008160008151811061257a577f4e487b7100000000000000000000000000000000000000000000000000000000600052603260045260246000fd5b60200101907effffffffffffffffffffffffffffffffffffffffffffffffffffffffffffff1916908160001a9053507f780000000000000000000000000000000000000000000000000000000000000081600181518110612604577f4e487b7100000000000000000000000000000000000000000000000000000000600052603260045260246000fd5b60200101907effffffffffffffffffffffffffffffffffffffffffffffffffffffffffffff1916908160001a9053506000600184600261264491906137c4565b61264e919061373d565b90505b600181111561273a577f3031323334353637383961626364656600000000000000000000000000000000600f8616601081106126b6577f4e487b7100000000000000000000000000000000000000000000000000000000600052603260045260246000fd5b1a60f81b8282815181106126f3577f4e487b7100000000000000000000000000000000000000000000000000000000600052603260045260246000fd5b60200101907effffffffffffffffffffffffffffffffffffffffffffffffffffffffffffff1916908160001a905350600485901c945080612733906138f6565b9050612651565b506000841461277e576040517f08c379a0000000000000000000000000000000000000000000000000000000008152600401612775906133f4565b60405180910390fd5b8091505092915050565b6000808273ffffffffffffffffffffffffffffffffffffffff163b119050919050565b60007f01ffc9a7000000000000000000000000000000000000000000000000000000007bffffffffffffffffffffffffffffffffffffffffffffffffffffffff1916827bffffffffffffffffffffffffffffffffffffffffffffffffffffffff1916149050919050565b600061282861282384613638565b613613565b9050808382526020820190508285602086028201111561284757600080fd5b60005b85811015612877578161285d888261292b565b84526020840193506020830192505060018101905061284a565b5050509392505050565b600061289461288f84613664565b613613565b905080838252602082019050828560208602820111156128b357600080fd5b60005b858110156128e357816128c98882612a12565b8452602084019350602083019250506001810190506128b6565b5050509392505050565b60006129006128fb84613690565b613613565b90508281526020810184848401111561291857600080fd5b6129238482856138b4565b509392505050565b60008135905061293a81614005565b92915050565b600082601f83011261295157600080fd5b8135612961848260208601612815565b91505092915050565b600082601f83011261297b57600080fd5b813561298b848260208601612881565b91505092915050565b6000813590506129a38161401c565b92915050565b6000813590506129b881614033565b92915050565b6000813590506129cd8161404a565b92915050565b6000815190506129e28161404a565b92915050565b600082601f8301126129f957600080fd5b8135612a098482602086016128ed565b91505092915050565b600081359050612a2181614061565b92915050565b60008060408385031215612a3a57600080fd5b6000612a488582860161292b565b9250506020612a598582860161292b565b9150509250929050565b600080600080600060a08688031215612a7b57600080fd5b6000612a898882890161292b565b9550506020612a9a8882890161292b565b945050604086013567ffffffffffffffff811115612ab757600080fd5b612ac38882890161296a565b935050606086013567ffffffffffffffff811115612ae057600080fd5b612aec8882890161296a565b925050608086013567ffffffffffffffff811115612b0957600080fd5b612b15888289016129e8565b9150509295509295909350565b600080600080600060a08688031215612b3a57600080fd5b6000612b488882890161292b565b9550506020612b598882890161292b565b9450506040612b6a88828901612a12565b9350506060612b7b88828901612a12565b925050608086013567ffffffffffffffff811115612b9857600080fd5b612ba4888289016129e8565b9150509295509295909350565b60008060408385031215612bc457600080fd5b6000612bd28582860161292b565b9250506020612be385828601612994565b9150509250929050565b60008060408385031215612c0057600080fd5b6000612c0e8582860161292b565b9250506020612c1f85828601612a12565b9150509250929050565b60008060408385031215612c3c57600080fd5b600083013567ffffffffffffffff811115612c5657600080fd5b612c6285828601612940565b925050602083013567ffffffffffffffff811115612c7f57600080fd5b612c8b8582860161296a565b9150509250929050565b60008060408385031215612ca857600080fd5b600083013567ffffffffffffffff811115612cc257600080fd5b612cce8582860161296a565b925050602083013567ffffffffffffffff811115612ceb57600080fd5b612cf78582860161296a565b9150509250929050565b600060208284031215612d1357600080fd5b6000612d21848285016129a9565b91505092915050565b60008060408385031215612d3d57600080fd5b6000612d4b858286016129a9565b9250506020612d5c8582860161292b565b9150509250929050565b600060208284031215612d7857600080fd5b6000612d86848285016129be565b91505092915050565b600060208284031215612da157600080fd5b6000612daf848285016129d3565b91505092915050565b600060208284031215612dca57600080fd5b6000612dd884828501612a12565b91505092915050565b60008060408385031215612df457600080fd5b6000612e0285828601612a12565b9250506020612e1385828601612a12565b9150509250929050565b6000612e2983836131b6565b60208301905092915050565b612e3e8161381e565b82525050565b6000612e4f826136d1565b612e5981856136ff565b9350612e64836136c1565b8060005b83811015612e95578151612e7c8882612e1d565b9750612e87836136f2565b925050600181019050612e68565b5085935050505092915050565b612eab81613830565b82525050565b612eba8161383c565b82525050565b6000612ecb826136dc565b612ed58185613710565b9350612ee58185602086016138c3565b612eee81613aaa565b840191505092915050565b6000612f04826136e7565b612f0e8185613721565b9350612f1e8185602086016138c3565b612f2781613aaa565b840191505092915050565b6000612f3d826136e7565b612f478185613732565b9350612f578185602086016138c3565b80840191505092915050565b6000612f70603483613721565b9150612f7b82613ac8565b604082019050919050565b6000612f93602083613721565b9150612f9e82613b17565b602082019050919050565b6000612fb6602883613721565b9150612fc182613b40565b604082019050919050565b6000612fd9602b83613721565b9150612fe482613b8f565b604082019050919050565b6000612ffc602983613721565b915061300782613bde565b604082019050919050565b600061301f602583613721565b915061302a82613c2d565b604082019050919050565b6000613042603283613721565b915061304d82613c7c565b604082019050919050565b6000613065602a83613721565b915061307082613ccb565b604082019050919050565b6000613088601b83613721565b915061309382613d1a565b602082019050919050565b60006130ab601783613732565b91506130b682613d43565b601782019050919050565b60006130ce602a83613721565b91506130d982613d6c565b604082019050919050565b60006130f1602983613721565b91506130fc82613dbb565b604082019050919050565b6000613114602983613721565b915061311f82613e0a565b604082019050919050565b6000613137602883613721565b915061314282613e59565b604082019050919050565b600061315a602183613721565b915061316582613ea8565b604082019050919050565b600061317d601183613732565b915061318882613ef7565b601182019050919050565b60006131a0602f83613721565b91506131ab82613f20565b604082019050919050565b6131bf81613892565b82525050565b6131ce81613892565b82525050565b6131dd8161389c565b82525050565b60006131ee8261309e565b91506131fa8285612f32565b915061320582613170565b91506132118284612f32565b91508190509392505050565b60006020820190506132326000830184612e35565b92915050565b600060a08201905061324d6000830188612e35565b61325a6020830187612e35565b818103604083015261326c8186612e44565b905081810360608301526132808185612e44565b905081810360808301526132948184612ec0565b90509695505050505050565b600060a0820190506132b56000830188612e35565b6132c26020830187612e35565b6132cf60408301866131c5565b6132dc60608301856131c5565b81810360808301526132ee8184612ec0565b90509695505050505050565b600060408201905061330f6000830185612e35565b61331c60208301846131c5565b9392505050565b6000602082019050818103600083015261333d8184612e44565b905092915050565b6000604082019050818103600083015261335f8185612e44565b905081810360208301526133738184612e44565b90509392505050565b60006020820190506133916000830184612ea2565b92915050565b60006020820190506133ac6000830184612eb1565b92915050565b600060208201905081810360008301526133cc8184612ef9565b905092915050565b600060208201905081810360008301526133ed81612f63565b9050919050565b6000602082019050818103600083015261340d81612f86565b9050919050565b6000602082019050818103600083015261342d81612fa9565b9050919050565b6000602082019050818103600083015261344d81612fcc565b9050919050565b6000602082019050818103600083015261346d81612fef565b9050919050565b6000602082019050818103600083015261348d81613012565b9050919050565b600060208201905081810360008301526134ad81613035565b9050919050565b600060208201905081810360008301526134cd81613058565b9050919050565b600060208201905081810360008301526134ed8161307b565b9050919050565b6000602082019050818103600083015261350d816130c1565b9050919050565b6000602082019050818103600083015261352d816130e4565b9050919050565b6000602082019050818103600083015261354d81613107565b9050919050565b6000602082019050818103600083015261356d8161312a565b9050919050565b6000602082019050818103600083015261358d8161314d565b9050919050565b600060208201905081810360008301526135ad81613193565b9050919050565b60006020820190506135c960008301846131c5565b92915050565b60006040820190506135e460008301856131c5565b6135f160208301846131c5565b9392505050565b600060208201905061360d60008301846131d4565b92915050565b600061361d61362e565b90506136298282613952565b919050565b6000604051905090565b600067ffffffffffffffff82111561365357613652613a59565b5b602082029050602081019050919050565b600067ffffffffffffffff82111561367f5761367e613a59565b5b602082029050602081019050919050565b600067ffffffffffffffff8211156136ab576136aa613a59565b5b6136b482613aaa565b9050602081019050919050565b6000819050602082019050919050565b600081519050919050565b600081519050919050565b600081519050919050565b6000602082019050919050565b600082825260208201905092915050565b600082825260208201905092915050565b600082825260208201905092915050565b600081905092915050565b600061374882613892565b915061375383613892565b9250827fffffffffffffffffffffffffffffffffffffffffffffffffffffffffffffffff03821115613788576137876139cc565b5b828201905092915050565b600061379e82613892565b91506137a983613892565b9250826137b9576137b86139fb565b5b828204905092915050565b60006137cf82613892565b91506137da83613892565b9250817fffffffffffffffffffffffffffffffffffffffffffffffffffffffffffffffff0483118215151615613813576138126139cc565b5b828202905092915050565b600061382982613872565b9050919050565b60008115159050919050565b6000819050919050565b60007fffffffff0000000000000000000000000000000000000000000000000000000082169050919050565b600073ffffffffffffffffffffffffffffffffffffffff82169050919050565b6000819050919050565b60006bffffffffffffffffffffffff82169050919050565b82818337600083830152505050565b60005b838110156138e15780820151818401526020810190506138c6565b838111156138f0576000848401525b50505050565b600061390182613892565b91506000821415613915576139146139cc565b5b600182039050919050565b6000600282049050600182168061393857607f821691505b6020821081141561394c5761394b613a2a565b5b50919050565b61395b82613aaa565b810181811067ffffffffffffffff8211171561397a57613979613a59565b5b80604052505050565b600061398e82613892565b91507fffffffffffffffffffffffffffffffffffffffffffffffffffffffffffffffff8214156139c1576139c06139cc565b5b600182019050919050565b7f4e487b7100000000000000000000000000000000000000000000000000000000600052601160045260246000fd5b7f4e487b7100000000000000000000000000000000000000000000000000000000600052601260045260246000fd5b7f4e487b7100000000000000000000000000000000000000000000000000000000600052602260045260246000fd5b7f4e487b7100000000000000000000000000000000000000000000000000000000600052604160045260246000fd5b600060033d1115613aa75760046000803e613aa4600051613abb565b90505b90565b6000601f19601f8301169050919050565b60008160e01c9050919050565b7f455243313135353a207472616e7366657220746f206e6f6e204552433131353560008201527f526563656976657220696d706c656d656e746572000000000000000000000000602082015250565b7f537472696e67733a20686578206c656e67746820696e73756666696369656e74600082015250565b7f455243313135353a204552433131353552656365697665722072656a6563746560008201527f6420746f6b656e73000000000000000000000000000000000000000000000000602082015250565b7f455243313135353a2062616c616e636520717565727920666f7220746865207a60008201527f65726f2061646472657373000000000000000000000000000000000000000000602082015250565b7f455243313135353a2063616c6c6572206973206e6f74206f776e6572206e6f7260008201527f20617070726f7665640000000000000000000000000000000000000000000000602082015250565b7f455243313135353a207472616e7366657220746f20746865207a65726f20616460008201527f6472657373000000000000000000000000000000000000000000000000000000602082015250565b7f455243313135353a207472616e736665722063616c6c6572206973206e6f742060008201527f6f776e6572206e6f7220617070726f7665640000000000000000000000000000602082015250565b7f455243313135353a20696e73756666696369656e742062616c616e636520666f60008201527f72207472616e7366657200000000000000000000000000000000000000000000602082015250565b7f455243323938313a20496e76616c696420706172616d65746572730000000000600082015250565b7f416363657373436f6e74726f6c3a206163636f756e7420000000000000000000600082015250565b7f455243323938313a20726f79616c7479206665652077696c6c2065786365656460008201527f2073616c65507269636500000000000000000000000000000000000000000000602082015250565b7f455243313135353a2073657474696e6720617070726f76616c2073746174757360008201527f20666f722073656c660000000000000000000000000000000000000000000000602082015250565b7f455243313135353a206163636f756e747320616e6420696473206c656e67746860008201527f206d69736d617463680000000000000000000000000000000000000000000000602082015250565b7f455243313135353a2069647320616e6420616d6f756e7473206c656e6774682060008201527f6d69736d61746368000000000000000000000000000000000000000000000000602082015250565b7f455243313135353a206d696e7420746f20746865207a65726f2061646472657360008201527f7300000000000000000000000000000000000000000000000000000000000000602082015250565b7f206973206d697373696e6720726f6c6520000000000000000000000000000000600082015250565b7f416363657373436f6e74726f6c3a2063616e206f6e6c792072656e6f756e636560008201527f20726f6c657320666f722073656c660000000000000000000000000000000000602082015250565b600060443d1015613f7f57614002565b613f8761362e565b60043d036004823e80513d602482011167ffffffffffffffff82111715613faf575050614002565b808201805167ffffffffffffffff811115613fcd5750505050614002565b80602083010160043d038501811115613fea575050505050614002565b613ff982602001850186613952565b82955050505050505b90565b61400e8161381e565b811461401957600080fd5b50565b61402581613830565b811461403057600080fd5b50565b61403c8161383c565b811461404757600080fd5b50565b61405381613846565b811461405e57600080fd5b50565b61406a81613892565b811461407557600080fd5b5056fea264697066735822122044695e06758a98825c327a174940e9b765d93a06d9aafbcaaffebd639ee459de64736f6c63430008040033",
  "linkReferences": {},
  "deployedLinkReferences": {}
}