{
  "_format": "hh-sol-artifact-1",
  "contractName": "MediaEyeGeneratorFactory",
  "sourceName": "contracts/MediaEyeGeneratorFactory.sol",
  "abi": [
    {
      "anonymous": false,
      "inputs": [
        {
          "indexed": false,
          "internalType": "address",
          "name": "NFT",
          "type": "address"
        }
      ],
      "name": "Deployed",
      "type": "event"
    },
    {
      "anonymous": false,
      "inputs": [
        {
          "indexed": true,
          "internalType": "address",
          "name": "previousOwner",
          "type": "address"
        },
        {
          "indexed": true,
          "internalType": "address",
          "name": "newOwner",
          "type": "address"
        }
      ],
      "name": "OwnershipTransferred",
      "type": "event"
    },
    {
      "inputs": [
        {
          "internalType": "string",
          "name": "_id",
          "type": "string"
        },
        {
          "internalType": "string",
          "name": "_name",
          "type": "string"
        },
        {
          "internalType": "string",
          "name": "_symbol",
          "type": "string"
        },
        {
          "internalType": "string",
          "name": "_customUri",
          "type": "string"
        },
        {
          "internalType": "address",
          "name": "_token",
          "type": "address"
        },
        {
          "internalType": "uint256",
          "name": "_price",
          "type": "uint256"
        },
        {
          "internalType": "uint256",
          "name": "_rareTokenId",
          "type": "uint256"
        },
        {
          "internalType": "uint256",
          "name": "_rarePrice",
          "type": "uint256"
        }
      ],
      "name": "deployAvatar",
      "outputs": [],
      "stateMutability": "nonpayable",
      "type": "function"
    },
    {
      "inputs": [
        {
          "internalType": "string",
          "name": "_id",
          "type": "string"
        }
      ],
      "name": "getAvatar",
      "outputs": [
        {
          "internalType": "address",
          "name": "",
          "type": "address"
        }
      ],
      "stateMutability": "view",
      "type": "function"
    },
    {
      "inputs": [],
      "name": "owner",
      "outputs": [
        {
          "internalType": "address",
          "name": "",
          "type": "address"
        }
      ],
      "stateMutability": "view",
      "type": "function"
    },
    {
      "inputs": [],
      "name": "renounceOwnership",
      "outputs": [],
      "stateMutability": "nonpayable",
      "type": "function"
    },
    {
      "inputs": [
        {
          "internalType": "address",
          "name": "newOwner",
          "type": "address"
        }
      ],
      "name": "transferOwnership",
      "outputs": [],
      "stateMutability": "nonpayable",
      "type": "function"
    }
  ],
  "bytecode": "0x608060405234801561001057600080fd5b5061002d61002261003260201b60201c565b61003a60201b60201c565b6100fe565b600033905090565b60008060009054906101000a900473ffffffffffffffffffffffffffffffffffffffff169050816000806101000a81548173ffffffffffffffffffffffffffffffffffffffff021916908373ffffffffffffffffffffffffffffffffffffffff1602179055508173ffffffffffffffffffffffffffffffffffffffff168173ffffffffffffffffffffffffffffffffffffffff167f8be0079c531659141344cd1fd0a4f28419497f9722a3daafe3b4186f6b6457e060405160405180910390a35050565b613f728061010d6000396000f3fe60806040523480156200001157600080fd5b50600436106200005e5760003560e01c8063057453dc1462000063578063715018a614620000835780637d840ed5146200008f5780638da5cb5b14620000c5578063f2fde38b14620000e7575b600080fd5b6200008160048036038101906200007b9190620005e8565b62000107565b005b6200008d620001f5565b005b620000ad6004803603810190620000a79190620005a3565b62000286565b604051620000bc919062000810565b60405180910390f35b620000cf620002d0565b604051620000de919062000810565b60405180910390f35b620001056004803603810190620000ff919062000577565b620002f9565b005b600087878787878787336040516200011f90620004c9565b620001329897969594939291906200082d565b604051809103906000f0801580156200014f573d6000803e3d6000fd5b5090508060018a604051620001659190620007f7565b908152602001604051809103902060006101000a81548173ffffffffffffffffffffffffffffffffffffffff021916908373ffffffffffffffffffffffffffffffffffffffff1602179055507ff40fcec21964ffb566044d083b4073f29f7f7929110ea19e1b3ebe375d89055e81604051620001e2919062000810565b60405180910390a1505050505050505050565b620001ff620003fd565b73ffffffffffffffffffffffffffffffffffffffff166200021f620002d0565b73ffffffffffffffffffffffffffffffffffffffff161462000278576040517f08c379a00000000000000000000000000000000000000000000000000000000081526004016200026f90620008f2565b60405180910390fd5b62000284600062000405565b565b60006001826040516200029a9190620007f7565b908152602001604051809103902060009054906101000a900473ffffffffffffffffffffffffffffffffffffffff169050919050565b60008060009054906101000a900473ffffffffffffffffffffffffffffffffffffffff16905090565b62000303620003fd565b73ffffffffffffffffffffffffffffffffffffffff1662000323620002d0565b73ffffffffffffffffffffffffffffffffffffffff16146200037c576040517f08c379a00000000000000000000000000000000000000000000000000000000081526004016200037390620008f2565b60405180910390fd5b600073ffffffffffffffffffffffffffffffffffffffff168173ffffffffffffffffffffffffffffffffffffffff161415620003ef576040517f08c379a0000000000000000000000000000000000000000000000000000000008152600401620003e690620008d0565b60405180910390fd5b620003fa8162000405565b50565b600033905090565b60008060009054906101000a900473ffffffffffffffffffffffffffffffffffffffff169050816000806101000a81548173ffffffffffffffffffffffffffffffffffffffff021916908373ffffffffffffffffffffffffffffffffffffffff1602179055508173ffffffffffffffffffffffffffffffffffffffff168173ffffffffffffffffffffffffffffffffffffffff167f8be0079c531659141344cd1fd0a4f28419497f9722a3daafe3b4186f6b6457e060405160405180910390a35050565b6133fd8062000b4083390190565b6000620004ee620004e8846200093d565b62000914565b9050828152602081018484840111156200050757600080fd5b62000514848285620009d8565b509392505050565b6000813590506200052d8162000b0b565b92915050565b600082601f8301126200054557600080fd5b813562000557848260208601620004d7565b91505092915050565b600081359050620005718162000b25565b92915050565b6000602082840312156200058a57600080fd5b60006200059a848285016200051c565b91505092915050565b600060208284031215620005b657600080fd5b600082013567ffffffffffffffff811115620005d157600080fd5b620005df8482850162000533565b91505092915050565b600080600080600080600080610100898b0312156200060657600080fd5b600089013567ffffffffffffffff8111156200062157600080fd5b6200062f8b828c0162000533565b985050602089013567ffffffffffffffff8111156200064d57600080fd5b6200065b8b828c0162000533565b975050604089013567ffffffffffffffff8111156200067957600080fd5b620006878b828c0162000533565b965050606089013567ffffffffffffffff811115620006a557600080fd5b620006b38b828c0162000533565b9550506080620006c68b828c016200051c565b94505060a0620006d98b828c0162000560565b93505060c0620006ec8b828c0162000560565b92505060e0620006ff8b828c0162000560565b9150509295985092959890939650565b6200071a816200099a565b82525050565b60006200072d8262000973565b6200073981856200097e565b93506200074b818560208601620009e7565b620007568162000a82565b840191505092915050565b60006200076e8262000973565b6200077a81856200098f565b93506200078c818560208601620009e7565b80840191505092915050565b6000620007a76026836200097e565b9150620007b48262000a93565b604082019050919050565b6000620007ce6020836200097e565b9150620007db8262000ae2565b602082019050919050565b620007f181620009ce565b82525050565b600062000805828462000761565b915081905092915050565b60006020820190506200082760008301846200070f565b92915050565b60006101008201905081810360008301526200084a818b62000720565b9050818103602083015262000860818a62000720565b9050818103604083015262000876818962000720565b90506200088760608301886200070f565b620008966080830187620007e6565b620008a560a0830186620007e6565b620008b460c0830185620007e6565b620008c360e08301846200070f565b9998505050505050505050565b60006020820190508181036000830152620008eb8162000798565b9050919050565b600060208201905081810360008301526200090d81620007bf565b9050919050565b60006200092062000933565b90506200092e828262000a1d565b919050565b6000604051905090565b600067ffffffffffffffff8211156200095b576200095a62000a53565b5b620009668262000a82565b9050602081019050919050565b600081519050919050565b600082825260208201905092915050565b600081905092915050565b6000620009a782620009ae565b9050919050565b600073ffffffffffffffffffffffffffffffffffffffff82169050919050565b6000819050919050565b82818337600083830152505050565b60005b8381101562000a07578082015181840152602081019050620009ea565b8381111562000a17576000848401525b50505050565b62000a288262000a82565b810181811067ffffffffffffffff8211171562000a4a5762000a4962000a53565b5b80604052505050565b7f4e487b7100000000000000000000000000000000000000000000000000000000600052604160045260246000fd5b6000601f19601f8301169050919050565b7f4f776e61626c653a206e6577206f776e657220697320746865207a65726f206160008201527f6464726573730000000000000000000000000000000000000000000000000000602082015250565b7f4f776e61626c653a2063616c6c6572206973206e6f7420746865206f776e6572600082015250565b62000b16816200099a565b811462000b2257600080fd5b50565b62000b3081620009ce565b811462000b3c57600080fd5b5056fe60806040523480156200001157600080fd5b50604051620033fd380380620033fd833981810160405281019062000037919062000285565b878781600090805190602001906200005192919062000135565b5080600190805190602001906200006a92919062000135565b50505085600690805190602001906200008592919062000135565b5084600960006101000a81548173ffffffffffffffffffffffffffffffffffffffff021916908373ffffffffffffffffffffffffffffffffffffffff1602179055508360088190555081600760008581526020019081526020016000208190555080600a60006101000a81548173ffffffffffffffffffffffffffffffffffffffff021916908373ffffffffffffffffffffffffffffffffffffffff160217905550505050505050505062000575565b828054620001439062000466565b90600052602060002090601f016020900481019282620001675760008555620001b3565b82601f106200018257805160ff1916838001178555620001b3565b82800160010185558215620001b3579182015b82811115620001b257825182559160200191906001019062000195565b5b509050620001c29190620001c6565b5090565b5b80821115620001e1576000816000905550600101620001c7565b5090565b6000620001fc620001f684620003bc565b62000393565b9050828152602081018484840111156200021557600080fd5b6200022284828562000430565b509392505050565b6000815190506200023b8162000541565b92915050565b600082601f8301126200025357600080fd5b815162000265848260208601620001e5565b91505092915050565b6000815190506200027f816200055b565b92915050565b600080600080600080600080610100898b031215620002a357600080fd5b600089015167ffffffffffffffff811115620002be57600080fd5b620002cc8b828c0162000241565b985050602089015167ffffffffffffffff811115620002ea57600080fd5b620002f88b828c0162000241565b975050604089015167ffffffffffffffff8111156200031657600080fd5b620003248b828c0162000241565b9650506060620003378b828c016200022a565b95505060806200034a8b828c016200026e565b94505060a06200035d8b828c016200026e565b93505060c0620003708b828c016200026e565b92505060e0620003838b828c016200022a565b9150509295985092959890939650565b60006200039f620003b2565b9050620003ad82826200049c565b919050565b6000604051905090565b600067ffffffffffffffff821115620003da57620003d962000501565b5b620003e58262000530565b9050602081019050919050565b6000620003ff8262000406565b9050919050565b600073ffffffffffffffffffffffffffffffffffffffff82169050919050565b6000819050919050565b60005b838110156200045057808201518184015260208101905062000433565b8381111562000460576000848401525b50505050565b600060028204905060018216806200047f57607f821691505b60208210811415620004965762000495620004d2565b5b50919050565b620004a78262000530565b810181811067ffffffffffffffff82111715620004c957620004c862000501565b5b80604052505050565b7f4e487b7100000000000000000000000000000000000000000000000000000000600052602260045260246000fd5b7f4e487b7100000000000000000000000000000000000000000000000000000000600052604160045260246000fd5b6000601f19601f8301169050919050565b6200054c81620003f2565b81146200055857600080fd5b50565b620005668162000426565b81146200057257600080fd5b50565b612e7880620005856000396000f3fe6080604052600436106101095760003560e01c80638d32895c11610095578063b88d4fde11610064578063b88d4fde1461036e578063bc31c1c114610397578063c87b56dd146103d4578063e985e9c514610411578063fc0c546a1461044e57610109565b80638d32895c146102d35780638de93222146102fe57806395d89b411461031a578063a22cb4651461034557610109565b8063095ea7b3116100dc578063095ea7b3146101de57806323b872dd1461020757806342842e0e146102305780636352211e1461025957806370a082311461029657610109565b806301ffc9a71461010e57806302d05d3f1461014b57806306fdde0314610176578063081812fc146101a1575b600080fd5b34801561011a57600080fd5b5061013560048036038101906101309190611ecf565b610479565b60405161014291906123b5565b60405180910390f35b34801561015757600080fd5b5061016061055b565b60405161016d9190612317565b60405180910390f35b34801561018257600080fd5b5061018b610581565b60405161019891906123d0565b60405180910390f35b3480156101ad57600080fd5b506101c860048036038101906101c39190611f21565b610613565b6040516101d59190612317565b60405180910390f35b3480156101ea57600080fd5b5061020560048036038101906102009190611e6a565b610698565b005b34801561021357600080fd5b5061022e60048036038101906102299190611d64565b6107b0565b005b34801561023c57600080fd5b5061025760048036038101906102529190611d64565b610810565b005b34801561026557600080fd5b50610280600480360381019061027b9190611f21565b610830565b60405161028d9190612317565b60405180910390f35b3480156102a257600080fd5b506102bd60048036038101906102b89190611cff565b6108e2565b6040516102ca9190612632565b60405180910390f35b3480156102df57600080fd5b506102e861099a565b6040516102f59190612632565b60405180910390f35b61031860048036038101906103139190611e6a565b6109a0565b005b34801561032657600080fd5b5061032f610bda565b60405161033c91906123d0565b60405180910390f35b34801561035157600080fd5b5061036c60048036038101906103679190611e2e565b610c6c565b005b34801561037a57600080fd5b5061039560048036038101906103909190611db3565b610c82565b005b3480156103a357600080fd5b506103be60048036038101906103b99190611f21565b610ce4565b6040516103cb9190612632565b60405180910390f35b3480156103e057600080fd5b506103fb60048036038101906103f69190611f21565b610cfc565b60405161040891906123d0565b60405180910390f35b34801561041d57600080fd5b5061043860048036038101906104339190611d28565b610d2e565b60405161044591906123b5565b60405180910390f35b34801561045a57600080fd5b50610463610dc2565b6040516104709190612317565b60405180910390f35b60007f80ac58cd000000000000000000000000000000000000000000000000000000007bffffffffffffffffffffffffffffffffffffffffffffffffffffffff1916827bffffffffffffffffffffffffffffffffffffffffffffffffffffffff1916148061054457507f5b5e139f000000000000000000000000000000000000000000000000000000007bffffffffffffffffffffffffffffffffffffffffffffffffffffffff1916827bffffffffffffffffffffffffffffffffffffffffffffffffffffffff1916145b80610554575061055382610de8565b5b9050919050565b600a60009054906101000a900473ffffffffffffffffffffffffffffffffffffffff1681565b60606000805461059090612831565b80601f01602080910402602001604051908101604052809291908181526020018280546105bc90612831565b80156106095780601f106105de57610100808354040283529160200191610609565b820191906000526020600020905b8154815290600101906020018083116105ec57829003601f168201915b5050505050905090565b600061061e82610e52565b61065d576040517f08c379a000000000000000000000000000000000000000000000000000000000815260040161065490612592565b60405180910390fd5b6004600083815260200190815260200160002060009054906101000a900473ffffffffffffffffffffffffffffffffffffffff169050919050565b60006106a382610830565b90508073ffffffffffffffffffffffffffffffffffffffff168373ffffffffffffffffffffffffffffffffffffffff161415610714576040517f08c379a000000000000000000000000000000000000000000000000000000000815260040161070b906125b2565b60405180910390fd5b8073ffffffffffffffffffffffffffffffffffffffff16610733610ebe565b73ffffffffffffffffffffffffffffffffffffffff16148061076257506107618161075c610ebe565b610d2e565b5b6107a1576040517f08c379a0000000000000000000000000000000000000000000000000000000008152600401610798906124f2565b60405180910390fd5b6107ab8383610ec6565b505050565b6107c16107bb610ebe565b82610f7f565b610800576040517f08c379a00000000000000000000000000000000000000000000000000000000081526004016107f7906125d2565b60405180910390fd5b61080b83838361105d565b505050565b61082b83838360405180602001604052806000815250610c82565b505050565b6000806002600084815260200190815260200160002060009054906101000a900473ffffffffffffffffffffffffffffffffffffffff169050600073ffffffffffffffffffffffffffffffffffffffff168173ffffffffffffffffffffffffffffffffffffffff1614156108d9576040517f08c379a00000000000000000000000000000000000000000000000000000000081526004016108d090612532565b60405180910390fd5b80915050919050565b60008073ffffffffffffffffffffffffffffffffffffffff168273ffffffffffffffffffffffffffffffffffffffff161415610953576040517f08c379a000000000000000000000000000000000000000000000000000000000815260040161094a90612512565b60405180910390fd5b600360008373ffffffffffffffffffffffffffffffffffffffff1673ffffffffffffffffffffffffffffffffffffffff168152602001908152602001600020549050919050565b60085481565b600073ffffffffffffffffffffffffffffffffffffffff166109c182610830565b73ffffffffffffffffffffffffffffffffffffffff1614610a17576040517f08c379a0000000000000000000000000000000000000000000000000000000008152600401610a0e906123f2565b60405180910390fd5b600080600760008481526020019081526020016000205414610a4c576007600083815260200190815260200160002054610a50565b6008545b9050600073ffffffffffffffffffffffffffffffffffffffff16600960009054906101000a900473ffffffffffffffffffffffffffffffffffffffff1673ffffffffffffffffffffffffffffffffffffffff161415610b5957803414610aeb576040517f08c379a0000000000000000000000000000000000000000000000000000000008152600401610ae290612572565b60405180910390fd5b600a60009054906101000a900473ffffffffffffffffffffffffffffffffffffffff1673ffffffffffffffffffffffffffffffffffffffff166108fc829081150290604051600060405180830381858888f19350505050158015610b53573d6000803e3d6000fd5b50610bcb565b610bca33600a60009054906101000a900473ffffffffffffffffffffffffffffffffffffffff1683600960009054906101000a900473ffffffffffffffffffffffffffffffffffffffff1673ffffffffffffffffffffffffffffffffffffffff166112c4909392919063ffffffff16565b5b610bd5838361134d565b505050565b606060018054610be990612831565b80601f0160208091040260200160405190810160405280929190818152602001828054610c1590612831565b8015610c625780601f10610c3757610100808354040283529160200191610c62565b820191906000526020600020905b815481529060010190602001808311610c4557829003601f168201915b5050505050905090565b610c7e610c77610ebe565b838361136b565b5050565b610c93610c8d610ebe565b83610f7f565b610cd2576040517f08c379a0000000000000000000000000000000000000000000000000000000008152600401610cc9906125d2565b60405180910390fd5b610cde848484846114d8565b50505050565b60076020528060005260406000206000915090505481565b6060610d06611534565b82604051602001610d189291906122ef565b6040516020818303038152906040529050919050565b6000600560008473ffffffffffffffffffffffffffffffffffffffff1673ffffffffffffffffffffffffffffffffffffffff16815260200190815260200160002060008373ffffffffffffffffffffffffffffffffffffffff1673ffffffffffffffffffffffffffffffffffffffff16815260200190815260200160002060009054906101000a900460ff16905092915050565b600960009054906101000a900473ffffffffffffffffffffffffffffffffffffffff1681565b60007f01ffc9a7000000000000000000000000000000000000000000000000000000007bffffffffffffffffffffffffffffffffffffffffffffffffffffffff1916827bffffffffffffffffffffffffffffffffffffffffffffffffffffffff1916149050919050565b60008073ffffffffffffffffffffffffffffffffffffffff166002600084815260200190815260200160002060009054906101000a900473ffffffffffffffffffffffffffffffffffffffff1673ffffffffffffffffffffffffffffffffffffffff1614159050919050565b600033905090565b816004600083815260200190815260200160002060006101000a81548173ffffffffffffffffffffffffffffffffffffffff021916908373ffffffffffffffffffffffffffffffffffffffff160217905550808273ffffffffffffffffffffffffffffffffffffffff16610f3983610830565b73ffffffffffffffffffffffffffffffffffffffff167f8c5be1e5ebec7d5bd14f71427d1e84f3dd0314c0f7b2291e5b200ac8c7c3b92560405160405180910390a45050565b6000610f8a82610e52565b610fc9576040517f08c379a0000000000000000000000000000000000000000000000000000000008152600401610fc0906124d2565b60405180910390fd5b6000610fd483610830565b90508073ffffffffffffffffffffffffffffffffffffffff168473ffffffffffffffffffffffffffffffffffffffff16148061101657506110158185610d2e565b5b8061105457508373ffffffffffffffffffffffffffffffffffffffff1661103c84610613565b73ffffffffffffffffffffffffffffffffffffffff16145b91505092915050565b8273ffffffffffffffffffffffffffffffffffffffff1661107d82610830565b73ffffffffffffffffffffffffffffffffffffffff16146110d3576040517f08c379a00000000000000000000000000000000000000000000000000000000081526004016110ca90612432565b60405180910390fd5b600073ffffffffffffffffffffffffffffffffffffffff168273ffffffffffffffffffffffffffffffffffffffff161415611143576040517f08c379a000000000000000000000000000000000000000000000000000000000815260040161113a90612472565b60405180910390fd5b61114e8383836115c6565b611159600082610ec6565b6001600360008573ffffffffffffffffffffffffffffffffffffffff1673ffffffffffffffffffffffffffffffffffffffff16815260200190815260200160002060008282546111a99190612747565b925050819055506001600360008473ffffffffffffffffffffffffffffffffffffffff1673ffffffffffffffffffffffffffffffffffffffff168152602001908152602001600020600082825461120091906126f1565b92505081905550816002600083815260200190815260200160002060006101000a81548173ffffffffffffffffffffffffffffffffffffffff021916908373ffffffffffffffffffffffffffffffffffffffff160217905550808273ffffffffffffffffffffffffffffffffffffffff168473ffffffffffffffffffffffffffffffffffffffff167fddf252ad1be2c89b69c2b068fc378daa952ba7f163c4a11628f55a4df523b3ef60405160405180910390a46112bf8383836115cb565b505050565b611347846323b872dd60e01b8585856040516024016112e593929190612332565b604051602081830303815290604052907bffffffffffffffffffffffffffffffffffffffffffffffffffffffff19166020820180517bffffffffffffffffffffffffffffffffffffffffffffffffffffffff83818316178352505050506115d0565b50505050565b611367828260405180602001604052806000815250611697565b5050565b8173ffffffffffffffffffffffffffffffffffffffff168373ffffffffffffffffffffffffffffffffffffffff1614156113da576040517f08c379a00000000000000000000000000000000000000000000000000000000081526004016113d190612492565b60405180910390fd5b80600560008573ffffffffffffffffffffffffffffffffffffffff1673ffffffffffffffffffffffffffffffffffffffff16815260200190815260200160002060008473ffffffffffffffffffffffffffffffffffffffff1673ffffffffffffffffffffffffffffffffffffffff16815260200190815260200160002060006101000a81548160ff0219169083151502179055508173ffffffffffffffffffffffffffffffffffffffff168373ffffffffffffffffffffffffffffffffffffffff167f17307eab39ab6107e8899845ad3d59bd9653f200f220920489ca2b5937696c31836040516114cb91906123b5565b60405180910390a3505050565b6114e384848461105d565b6114ef848484846116f2565b61152e576040517f08c379a000000000000000000000000000000000000000000000000000000000815260040161152590612412565b60405180910390fd5b50505050565b60606006805461154390612831565b80601f016020809104026020016040519081016040528092919081815260200182805461156f90612831565b80156115bc5780601f10611591576101008083540402835291602001916115bc565b820191906000526020600020905b81548152906001019060200180831161159f57829003601f168201915b5050505050905090565b505050565b505050565b6000611632826040518060400160405280602081526020017f5361666545524332303a206c6f772d6c6576656c2063616c6c206661696c65648152508573ffffffffffffffffffffffffffffffffffffffff166118899092919063ffffffff16565b905060008151111561169257808060200190518101906116529190611ea6565b611691576040517f08c379a000000000000000000000000000000000000000000000000000000000815260040161168890612612565b60405180910390fd5b5b505050565b6116a183836118a1565b6116ae60008484846116f2565b6116ed576040517f08c379a00000000000000000000000000000000000000000000000000000000081526004016116e490612412565b60405180910390fd5b505050565b60006117138473ffffffffffffffffffffffffffffffffffffffff16611a7b565b1561187c578373ffffffffffffffffffffffffffffffffffffffff1663150b7a0261173c610ebe565b8786866040518563ffffffff1660e01b815260040161175e9493929190612369565b602060405180830381600087803b15801561177857600080fd5b505af19250505080156117a957506040513d601f19601f820116820180604052508101906117a69190611ef8565b60015b61182c573d80600081146117d9576040519150601f19603f3d011682016040523d82523d6000602084013e6117de565b606091505b50600081511415611824576040517f08c379a000000000000000000000000000000000000000000000000000000000815260040161181b90612412565b60405180910390fd5b805181602001fd5b63150b7a0260e01b7bffffffffffffffffffffffffffffffffffffffffffffffffffffffff1916817bffffffffffffffffffffffffffffffffffffffffffffffffffffffff191614915050611881565b600190505b949350505050565b60606118988484600085611a9e565b90509392505050565b600073ffffffffffffffffffffffffffffffffffffffff168273ffffffffffffffffffffffffffffffffffffffff161415611911576040517f08c379a000000000000000000000000000000000000000000000000000000000815260040161190890612552565b60405180910390fd5b61191a81610e52565b1561195a576040517f08c379a000000000000000000000000000000000000000000000000000000000815260040161195190612452565b60405180910390fd5b611966600083836115c6565b6001600360008473ffffffffffffffffffffffffffffffffffffffff1673ffffffffffffffffffffffffffffffffffffffff16815260200190815260200160002060008282546119b691906126f1565b92505081905550816002600083815260200190815260200160002060006101000a81548173ffffffffffffffffffffffffffffffffffffffff021916908373ffffffffffffffffffffffffffffffffffffffff160217905550808273ffffffffffffffffffffffffffffffffffffffff16600073ffffffffffffffffffffffffffffffffffffffff167fddf252ad1be2c89b69c2b068fc378daa952ba7f163c4a11628f55a4df523b3ef60405160405180910390a4611a77600083836115cb565b5050565b6000808273ffffffffffffffffffffffffffffffffffffffff163b119050919050565b606082471015611ae3576040517f08c379a0000000000000000000000000000000000000000000000000000000008152600401611ada906124b2565b60405180910390fd5b611aec85611a7b565b611b2b576040517f08c379a0000000000000000000000000000000000000000000000000000000008152600401611b22906125f2565b60405180910390fd5b6000808673ffffffffffffffffffffffffffffffffffffffff168587604051611b5491906122d8565b60006040518083038185875af1925050503d8060008114611b91576040519150601f19603f3d011682016040523d82523d6000602084013e611b96565b606091505b5091509150611ba6828286611bb2565b92505050949350505050565b60608315611bc257829050611c12565b600083511115611bd55782518084602001fd5b816040517f08c379a0000000000000000000000000000000000000000000000000000000008152600401611c0991906123d0565b60405180910390fd5b9392505050565b6000611c2c611c2784612672565b61264d565b905082815260208101848484011115611c4457600080fd5b611c4f8482856127ef565b509392505050565b600081359050611c6681612de6565b92915050565b600081359050611c7b81612dfd565b92915050565b600081519050611c9081612dfd565b92915050565b600081359050611ca581612e14565b92915050565b600081519050611cba81612e14565b92915050565b600082601f830112611cd157600080fd5b8135611ce1848260208601611c19565b91505092915050565b600081359050611cf981612e2b565b92915050565b600060208284031215611d1157600080fd5b6000611d1f84828501611c57565b91505092915050565b60008060408385031215611d3b57600080fd5b6000611d4985828601611c57565b9250506020611d5a85828601611c57565b9150509250929050565b600080600060608486031215611d7957600080fd5b6000611d8786828701611c57565b9350506020611d9886828701611c57565b9250506040611da986828701611cea565b9150509250925092565b60008060008060808587031215611dc957600080fd5b6000611dd787828801611c57565b9450506020611de887828801611c57565b9350506040611df987828801611cea565b925050606085013567ffffffffffffffff811115611e1657600080fd5b611e2287828801611cc0565b91505092959194509250565b60008060408385031215611e4157600080fd5b6000611e4f85828601611c57565b9250506020611e6085828601611c6c565b9150509250929050565b60008060408385031215611e7d57600080fd5b6000611e8b85828601611c57565b9250506020611e9c85828601611cea565b9150509250929050565b600060208284031215611eb857600080fd5b6000611ec684828501611c81565b91505092915050565b600060208284031215611ee157600080fd5b6000611eef84828501611c96565b91505092915050565b600060208284031215611f0a57600080fd5b6000611f1884828501611cab565b91505092915050565b600060208284031215611f3357600080fd5b6000611f4184828501611cea565b91505092915050565b611f538161277b565b82525050565b611f628161278d565b82525050565b6000611f73826126a3565b611f7d81856126b9565b9350611f8d8185602086016127fe565b611f968161292b565b840191505092915050565b6000611fac826126a3565b611fb681856126ca565b9350611fc68185602086016127fe565b80840191505092915050565b6000611fdd826126ae565b611fe781856126d5565b9350611ff78185602086016127fe565b6120008161292b565b840191505092915050565b6000612016826126ae565b61202081856126e6565b93506120308185602086016127fe565b80840191505092915050565b60006120496012836126d5565b91506120548261293c565b602082019050919050565b600061206c6032836126d5565b915061207782612965565b604082019050919050565b600061208f6025836126d5565b915061209a826129b4565b604082019050919050565b60006120b2601c836126d5565b91506120bd82612a03565b602082019050919050565b60006120d56024836126d5565b91506120e082612a2c565b604082019050919050565b60006120f86019836126d5565b915061210382612a7b565b602082019050919050565b600061211b6026836126d5565b915061212682612aa4565b604082019050919050565b600061213e602c836126d5565b915061214982612af3565b604082019050919050565b60006121616038836126d5565b915061216c82612b42565b604082019050919050565b6000612184602a836126d5565b915061218f82612b91565b604082019050919050565b60006121a76029836126d5565b91506121b282612be0565b604082019050919050565b60006121ca6020836126d5565b91506121d582612c2f565b602082019050919050565b60006121ed600e836126d5565b91506121f882612c58565b602082019050919050565b6000612210602c836126d5565b915061221b82612c81565b604082019050919050565b60006122336021836126d5565b915061223e82612cd0565b604082019050919050565b60006122566031836126d5565b915061226182612d1f565b604082019050919050565b6000612279601d836126d5565b915061228482612d6e565b602082019050919050565b600061229c602a836126d5565b91506122a782612d97565b604082019050919050565b6122bb816127e5565b82525050565b6122d26122cd826127e5565b612894565b82525050565b60006122e48284611fa1565b915081905092915050565b60006122fb828561200b565b915061230782846122c1565b6020820191508190509392505050565b600060208201905061232c6000830184611f4a565b92915050565b60006060820190506123476000830186611f4a565b6123546020830185611f4a565b61236160408301846122b2565b949350505050565b600060808201905061237e6000830187611f4a565b61238b6020830186611f4a565b61239860408301856122b2565b81810360608301526123aa8184611f68565b905095945050505050565b60006020820190506123ca6000830184611f59565b92915050565b600060208201905081810360008301526123ea8184611fd2565b905092915050565b6000602082019050818103600083015261240b8161203c565b9050919050565b6000602082019050818103600083015261242b8161205f565b9050919050565b6000602082019050818103600083015261244b81612082565b9050919050565b6000602082019050818103600083015261246b816120a5565b9050919050565b6000602082019050818103600083015261248b816120c8565b9050919050565b600060208201905081810360008301526124ab816120eb565b9050919050565b600060208201905081810360008301526124cb8161210e565b9050919050565b600060208201905081810360008301526124eb81612131565b9050919050565b6000602082019050818103600083015261250b81612154565b9050919050565b6000602082019050818103600083015261252b81612177565b9050919050565b6000602082019050818103600083015261254b8161219a565b9050919050565b6000602082019050818103600083015261256b816121bd565b9050919050565b6000602082019050818103600083015261258b816121e0565b9050919050565b600060208201905081810360008301526125ab81612203565b9050919050565b600060208201905081810360008301526125cb81612226565b9050919050565b600060208201905081810360008301526125eb81612249565b9050919050565b6000602082019050818103600083015261260b8161226c565b9050919050565b6000602082019050818103600083015261262b8161228f565b9050919050565b600060208201905061264760008301846122b2565b92915050565b6000612657612668565b90506126638282612863565b919050565b6000604051905090565b600067ffffffffffffffff82111561268d5761268c6128fc565b5b6126968261292b565b9050602081019050919050565b600081519050919050565b600081519050919050565b600082825260208201905092915050565b600081905092915050565b600082825260208201905092915050565b600081905092915050565b60006126fc826127e5565b9150612707836127e5565b9250827fffffffffffffffffffffffffffffffffffffffffffffffffffffffffffffffff0382111561273c5761273b61289e565b5b828201905092915050565b6000612752826127e5565b915061275d836127e5565b9250828210156127705761276f61289e565b5b828203905092915050565b6000612786826127c5565b9050919050565b60008115159050919050565b60007fffffffff0000000000000000000000000000000000000000000000000000000082169050919050565b600073ffffffffffffffffffffffffffffffffffffffff82169050919050565b6000819050919050565b82818337600083830152505050565b60005b8381101561281c578082015181840152602081019050612801565b8381111561282b576000848401525b50505050565b6000600282049050600182168061284957607f821691505b6020821081141561285d5761285c6128cd565b5b50919050565b61286c8261292b565b810181811067ffffffffffffffff8211171561288b5761288a6128fc565b5b80604052505050565b6000819050919050565b7f4e487b7100000000000000000000000000000000000000000000000000000000600052601160045260246000fd5b7f4e487b7100000000000000000000000000000000000000000000000000000000600052602260045260246000fd5b7f4e487b7100000000000000000000000000000000000000000000000000000000600052604160045260246000fd5b6000601f19601f8301169050919050565b7f616c7265616479207075726368617365642e0000000000000000000000000000600082015250565b7f4552433732313a207472616e7366657220746f206e6f6e20455243373231526560008201527f63656976657220696d706c656d656e7465720000000000000000000000000000602082015250565b7f4552433732313a207472616e736665722066726f6d20696e636f72726563742060008201527f6f776e6572000000000000000000000000000000000000000000000000000000602082015250565b7f4552433732313a20746f6b656e20616c7265616479206d696e74656400000000600082015250565b7f4552433732313a207472616e7366657220746f20746865207a65726f2061646460008201527f7265737300000000000000000000000000000000000000000000000000000000602082015250565b7f4552433732313a20617070726f766520746f2063616c6c657200000000000000600082015250565b7f416464726573733a20696e73756666696369656e742062616c616e636520666f60008201527f722063616c6c0000000000000000000000000000000000000000000000000000602082015250565b7f4552433732313a206f70657261746f7220717565727920666f72206e6f6e657860008201527f697374656e7420746f6b656e0000000000000000000000000000000000000000602082015250565b7f4552433732313a20617070726f76652063616c6c6572206973206e6f74206f7760008201527f6e6572206e6f7220617070726f76656420666f7220616c6c0000000000000000602082015250565b7f4552433732313a2062616c616e636520717565727920666f7220746865207a6560008201527f726f206164647265737300000000000000000000000000000000000000000000602082015250565b7f4552433732313a206f776e657220717565727920666f72206e6f6e657869737460008201527f656e7420746f6b656e0000000000000000000000000000000000000000000000602082015250565b7f4552433732313a206d696e7420746f20746865207a65726f2061646472657373600082015250565b7f496e76616c69642076616c75652e000000000000000000000000000000000000600082015250565b7f4552433732313a20617070726f76656420717565727920666f72206e6f6e657860008201527f697374656e7420746f6b656e0000000000000000000000000000000000000000602082015250565b7f4552433732313a20617070726f76616c20746f2063757272656e74206f776e6560008201527f7200000000000000000000000000000000000000000000000000000000000000602082015250565b7f4552433732313a207472616e736665722063616c6c6572206973206e6f74206f60008201527f776e6572206e6f7220617070726f766564000000000000000000000000000000602082015250565b7f416464726573733a2063616c6c20746f206e6f6e2d636f6e7472616374000000600082015250565b7f5361666545524332303a204552433230206f7065726174696f6e20646964206e60008201527f6f74207375636365656400000000000000000000000000000000000000000000602082015250565b612def8161277b565b8114612dfa57600080fd5b50565b612e068161278d565b8114612e1157600080fd5b50565b612e1d81612799565b8114612e2857600080fd5b50565b612e34816127e5565b8114612e3f57600080fd5b5056fea2646970667358221220323778d055d0d6f36d39c0fa5b7e0da95505d46a494e313bc8c579a9cd53076964736f6c63430008040033a2646970667358221220b95ef994107c7a7b4d81ee38a3b6e3b332b742e481fb58dbff651f21e8520aec64736f6c63430008040033",
  "linkReferences": {},
  "deployedLinkReferences": {}
}